{
  "_format": "hh-sol-artifact-1",
  "contractName": "Relayer",
  "sourceName": "contracts/Relayer.sol",
  "abi": [
    {
      "inputs": [
        {
          "internalType": "contract IERC20",
          "name": "_olas",
          "type": "address"
        },
        {
          "internalType": "contract IERC20",
          "name": "_wxDai",
          "type": "address"
        },
        {
          "internalType": "bytes32",
          "name": "_poolId",
          "type": "bytes32"
        },
        {
          "internalType": "contract PoolUtils",
          "name": "_poolUtils",
          "type": "address"
        }
      ],
      "stateMutability": "nonpayable",
      "type": "constructor"
    },
    {
      "inputs": [],
      "name": "AccessControlBadConfirmation",
      "type": "error"
    },
    {
      "inputs": [
        {
          "internalType": "address",
          "name": "account",
          "type": "address"
        },
        {
          "internalType": "bytes32",
          "name": "neededRole",
          "type": "bytes32"
        }
      ],
      "name": "AccessControlUnauthorizedAccount",
      "type": "error"
    },
    {
      "inputs": [
        {
          "internalType": "address",
          "name": "target",
          "type": "address"
        }
      ],
      "name": "AddressEmptyCode",
      "type": "error"
    },
    {
      "inputs": [
        {
          "internalType": "address",
          "name": "account",
          "type": "address"
        }
      ],
      "name": "AddressInsufficientBalance",
      "type": "error"
    },
    {
      "inputs": [],
      "name": "FailedInnerCall",
      "type": "error"
    },
    {
      "inputs": [
        {
          "internalType": "address",
          "name": "owner",
          "type": "address"
        }
      ],
      "name": "OwnableInvalidOwner",
      "type": "error"
    },
    {
      "inputs": [
        {
          "internalType": "address",
          "name": "account",
          "type": "address"
        }
      ],
      "name": "OwnableUnauthorizedAccount",
      "type": "error"
    },
    {
      "inputs": [
        {
          "internalType": "address",
          "name": "token",
          "type": "address"
        }
      ],
      "name": "SafeERC20FailedOperation",
      "type": "error"
    },
    {
      "anonymous": false,
      "inputs": [
        {
          "indexed": true,
          "internalType": "address",
          "name": "addr",
          "type": "address"
        }
      ],
      "name": "Allowlisted",
      "type": "event"
    },
    {
      "anonymous": false,
      "inputs": [
        {
          "indexed": true,
          "internalType": "address",
          "name": "operator",
          "type": "address"
        },
        {
          "indexed": false,
          "internalType": "uint256",
          "name": "amount",
          "type": "uint256"
        }
      ],
      "name": "Deposited",
      "type": "event"
    },
    {
      "anonymous": false,
      "inputs": [
        {
          "indexed": true,
          "internalType": "address",
          "name": "from",
          "type": "address"
        },
        {
          "indexed": false,
          "internalType": "uint256",
          "name": "gasUsed",
          "type": "uint256"
        },
        {
          "indexed": false,
          "internalType": "uint256",
          "name": "olasUsed",
          "type": "uint256"
        }
      ],
      "name": "Executed",
      "type": "event"
    },
    {
      "anonymous": false,
      "inputs": [
        {
          "indexed": true,
          "internalType": "address",
          "name": "operator",
          "type": "address"
        }
      ],
      "name": "MintedService",
      "type": "event"
    },
    {
      "anonymous": false,
      "inputs": [
        {
          "indexed": true,
          "internalType": "address",
          "name": "previousOwner",
          "type": "address"
        },
        {
          "indexed": true,
          "internalType": "address",
          "name": "newOwner",
          "type": "address"
        }
      ],
      "name": "OwnershipTransferred",
      "type": "event"
    },
    {
      "anonymous": false,
      "inputs": [
        {
          "indexed": true,
          "internalType": "address",
          "name": "addr",
          "type": "address"
        }
      ],
      "name": "RemovedFromAllowlist",
      "type": "event"
    },
    {
      "anonymous": false,
      "inputs": [
        {
          "indexed": true,
          "internalType": "bytes32",
          "name": "role",
          "type": "bytes32"
        },
        {
          "indexed": true,
          "internalType": "bytes32",
          "name": "previousAdminRole",
          "type": "bytes32"
        },
        {
          "indexed": true,
          "internalType": "bytes32",
          "name": "newAdminRole",
          "type": "bytes32"
        }
      ],
      "name": "RoleAdminChanged",
      "type": "event"
    },
    {
      "anonymous": false,
      "inputs": [
        {
          "indexed": true,
          "internalType": "bytes32",
          "name": "role",
          "type": "bytes32"
        },
        {
          "indexed": true,
          "internalType": "address",
          "name": "account",
          "type": "address"
        },
        {
          "indexed": true,
          "internalType": "address",
          "name": "sender",
          "type": "address"
        }
      ],
      "name": "RoleGranted",
      "type": "event"
    },
    {
      "anonymous": false,
      "inputs": [
        {
          "indexed": true,
          "internalType": "bytes32",
          "name": "role",
          "type": "bytes32"
        },
        {
          "indexed": true,
          "internalType": "address",
          "name": "account",
          "type": "address"
        },
        {
          "indexed": true,
          "internalType": "address",
          "name": "sender",
          "type": "address"
        }
      ],
      "name": "RoleRevoked",
      "type": "event"
    },
    {
      "anonymous": false,
      "inputs": [
        {
          "indexed": true,
          "internalType": "address",
          "name": "operator",
          "type": "address"
        },
        {
          "indexed": false,
          "internalType": "uint256",
          "name": "amount",
          "type": "uint256"
        }
      ],
      "name": "Withdraw",
      "type": "event"
    },
    {
      "inputs": [],
      "name": "DEFAULT_ADMIN_ROLE",
      "outputs": [
        {
          "internalType": "bytes32",
          "name": "",
          "type": "bytes32"
        }
      ],
      "stateMutability": "view",
      "type": "function"
    },
    {
      "inputs": [],
      "name": "RELAYER_ROLE",
      "outputs": [
        {
          "internalType": "bytes32",
          "name": "",
          "type": "bytes32"
        }
      ],
      "stateMutability": "view",
      "type": "function"
    },
    {
      "inputs": [
        {
          "internalType": "address",
          "name": "addr",
          "type": "address"
        }
      ],
      "name": "allowlistAddress",
      "outputs": [],
      "stateMutability": "nonpayable",
      "type": "function"
    },
    {
      "inputs": [
        {
          "internalType": "address",
          "name": "to",
          "type": "address"
        },
        {
          "internalType": "bytes",
          "name": "data",
          "type": "bytes"
        }
      ],
      "name": "exec",
      "outputs": [],
      "stateMutability": "nonpayable",
      "type": "function"
    },
    {
      "inputs": [
        {
          "internalType": "bytes32",
          "name": "role",
          "type": "bytes32"
        }
      ],
      "name": "getRoleAdmin",
      "outputs": [
        {
          "internalType": "bytes32",
          "name": "",
          "type": "bytes32"
        }
      ],
      "stateMutability": "view",
      "type": "function"
    },
    {
      "inputs": [
        {
          "internalType": "bytes32",
          "name": "role",
          "type": "bytes32"
        },
        {
          "internalType": "address",
          "name": "account",
          "type": "address"
        }
      ],
      "name": "grantRole",
      "outputs": [],
      "stateMutability": "nonpayable",
      "type": "function"
    },
    {
      "inputs": [
        {
          "internalType": "bytes32",
          "name": "role",
          "type": "bytes32"
        },
        {
          "internalType": "address",
          "name": "account",
          "type": "address"
        }
      ],
      "name": "hasRole",
      "outputs": [
        {
          "internalType": "bool",
          "name": "",
          "type": "bool"
        }
      ],
      "stateMutability": "view",
      "type": "function"
    },
    {
      "inputs": [],
      "name": "olas",
      "outputs": [
        {
          "internalType": "contract IERC20",
          "name": "",
          "type": "address"
        }
      ],
      "stateMutability": "view",
      "type": "function"
    },
    {
      "inputs": [
        {
          "internalType": "address",
          "name": "",
          "type": "address"
        }
      ],
      "name": "operatorBalances",
      "outputs": [
        {
          "internalType": "uint256",
          "name": "",
          "type": "uint256"
        }
      ],
      "stateMutability": "view",
      "type": "function"
    },
    {
      "inputs": [
        {
          "internalType": "uint256",
          "name": "amount",
          "type": "uint256"
        }
      ],
      "name": "operatorDeposit",
      "outputs": [],
      "stateMutability": "nonpayable",
      "type": "function"
    },
    {
      "inputs": [],
      "name": "owner",
      "outputs": [
        {
          "internalType": "address",
          "name": "",
          "type": "address"
        }
      ],
      "stateMutability": "view",
      "type": "function"
    },
    {
      "inputs": [],
      "name": "poolUtils",
      "outputs": [
        {
          "internalType": "contract PoolUtils",
          "name": "",
          "type": "address"
        }
      ],
      "stateMutability": "view",
      "type": "function"
    },
    {
      "inputs": [
        {
          "internalType": "address",
          "name": "addr",
          "type": "address"
        }
      ],
      "name": "removeAddress",
      "outputs": [],
      "stateMutability": "nonpayable",
      "type": "function"
    },
    {
      "inputs": [],
      "name": "renounceOwnership",
      "outputs": [],
      "stateMutability": "nonpayable",
      "type": "function"
    },
    {
      "inputs": [
        {
          "internalType": "bytes32",
          "name": "role",
          "type": "bytes32"
        },
        {
          "internalType": "address",
          "name": "callerConfirmation",
          "type": "address"
        }
      ],
      "name": "renounceRole",
      "outputs": [],
      "stateMutability": "nonpayable",
      "type": "function"
    },
    {
      "inputs": [
        {
          "internalType": "bytes32",
          "name": "role",
          "type": "bytes32"
        },
        {
          "internalType": "address",
          "name": "account",
          "type": "address"
        }
      ],
      "name": "revokeRole",
      "outputs": [],
      "stateMutability": "nonpayable",
      "type": "function"
    },
    {
      "inputs": [
        {
          "internalType": "address",
          "name": "",
          "type": "address"
        }
      ],
      "name": "spenderToOperator",
      "outputs": [
        {
          "internalType": "address",
          "name": "",
          "type": "address"
        }
      ],
      "stateMutability": "view",
      "type": "function"
    },
    {
      "inputs": [
        {
          "internalType": "bytes4",
          "name": "interfaceId",
          "type": "bytes4"
        }
      ],
      "name": "supportsInterface",
      "outputs": [
        {
          "internalType": "bool",
          "name": "",
          "type": "bool"
        }
      ],
      "stateMutability": "view",
      "type": "function"
    },
    {
      "inputs": [
        {
          "internalType": "address",
          "name": "newOwner",
          "type": "address"
        }
      ],
      "name": "transferOwnership",
      "outputs": [],
      "stateMutability": "nonpayable",
      "type": "function"
    },
    {
      "inputs": [
        {
          "internalType": "uint256",
          "name": "amount",
          "type": "uint256"
        }
      ],
      "name": "withdraw",
      "outputs": [],
      "stateMutability": "nonpayable",
      "type": "function"
    },
    {
      "inputs": [],
      "name": "wxDAI",
      "outputs": [
        {
          "internalType": "contract IERC20",
          "name": "",
          "type": "address"
        }
      ],
      "stateMutability": "view",
      "type": "function"
    }
  ],
  "bytecode": "0x60806040523480156200001157600080fd5b5060405162002b5638038062002b56833981810160405281019062000037919062000514565b33600073ffffffffffffffffffffffffffffffffffffffff168173ffffffffffffffffffffffffffffffffffffffff1603620000ad5760006040517f1e4fbdf7000000000000000000000000000000000000000000000000000000008152600401620000a4919062000597565b60405180910390fd5b620000be81620001dc60201b60201c565b508160048190555083600260006101000a81548173ffffffffffffffffffffffffffffffffffffffff021916908373ffffffffffffffffffffffffffffffffffffffff16021790555080600760006101000a81548173ffffffffffffffffffffffffffffffffffffffff021916908373ffffffffffffffffffffffffffffffffffffffff16021790555082600360006101000a81548173ffffffffffffffffffffffffffffffffffffffff021916908373ffffffffffffffffffffffffffffffffffffffff1602179055506200019e6000801b33620002a060201b60201c565b50620001d17fe2b7fb3b832174769106daebcfd6d1970523240dda11281102db9363b83b0dc433620002a060201b60201c565b5050505050620005b4565b60008060009054906101000a900473ffffffffffffffffffffffffffffffffffffffff169050816000806101000a81548173ffffffffffffffffffffffffffffffffffffffff021916908373ffffffffffffffffffffffffffffffffffffffff1602179055508173ffffffffffffffffffffffffffffffffffffffff168173ffffffffffffffffffffffffffffffffffffffff167f8be0079c531659141344cd1fd0a4f28419497f9722a3daafe3b4186f6b6457e060405160405180910390a35050565b6000620002b48383620003a360201b60201c565b6200039857600180600085815260200190815260200160002060000160008473ffffffffffffffffffffffffffffffffffffffff1673ffffffffffffffffffffffffffffffffffffffff16815260200190815260200160002060006101000a81548160ff021916908315150217905550620003346200040e60201b60201c565b73ffffffffffffffffffffffffffffffffffffffff168273ffffffffffffffffffffffffffffffffffffffff16847f2f8788117e7eff1d82e926ec794901d17c78024a50270940304540a733656f0d60405160405180910390a4600190506200039d565b600090505b92915050565b60006001600084815260200190815260200160002060000160008373ffffffffffffffffffffffffffffffffffffffff1673ffffffffffffffffffffffffffffffffffffffff16815260200190815260200160002060009054906101000a900460ff16905092915050565b600033905090565b600080fd5b600073ffffffffffffffffffffffffffffffffffffffff82169050919050565b600062000448826200041b565b9050919050565b60006200045c826200043b565b9050919050565b6200046e816200044f565b81146200047a57600080fd5b50565b6000815190506200048e8162000463565b92915050565b6000819050919050565b620004a98162000494565b8114620004b557600080fd5b50565b600081519050620004c9816200049e565b92915050565b6000620004dc826200043b565b9050919050565b620004ee81620004cf565b8114620004fa57600080fd5b50565b6000815190506200050e81620004e3565b92915050565b6000806000806080858703121562000531576200053062000416565b5b600062000541878288016200047d565b945050602062000554878288016200047d565b93505060406200056787828801620004b8565b92505060606200057a87828801620004fd565b91505092959194509250565b62000591816200043b565b82525050565b6000602082019050620005ae600083018462000586565b92915050565b61259280620005c46000396000f3fe608060405234801561001057600080fd5b50600436106101365760003560e01c80638da5cb5b116100b8578063c54990b01161007c578063c54990b014610325578063c5b1267714610355578063d547741f14610373578063e2087ece1461038f578063f191aad0146103ad578063f2fde38b146103c957610136565b80638da5cb5b1461027f57806391d148541461029d578063926d7d7f146102cd578063a217fddf146102eb578063be6002c21461030957610136565b80632f2ff15d116100ff5780632f2ff15d1461020557806336568abe146102215780634ba79dfe1461023d57806350505a4814610259578063715018a61461027557610136565b806231d1151461013b57806301ffc9a714610159578063248a9ca3146101895780632995145a146101b95780632e1a7d4d146101e9575b600080fd5b6101436103e5565b6040516101509190611af5565b60405180910390f35b610173600480360381019061016e9190611b72565b61040b565b6040516101809190611bba565b60405180910390f35b6101a3600480360381019061019e9190611c0b565b610485565b6040516101b09190611c47565b60405180910390f35b6101d360048036038101906101ce9190611ca0565b6104a5565b6040516101e09190611cdc565b60405180910390f35b61020360048036038101906101fe9190611d2d565b6104d8565b005b61021f600480360381019061021a9190611d5a565b61064e565b005b61023b60048036038101906102369190611d5a565b610670565b005b61025760048036038101906102529190611ca0565b6106eb565b005b610273600480360381019061026e9190611d2d565b6108ec565b005b61027d610a60565b005b610287610a74565b6040516102949190611cdc565b60405180910390f35b6102b760048036038101906102b29190611d5a565b610a9d565b6040516102c49190611bba565b60405180910390f35b6102d5610b08565b6040516102e29190611c47565b60405180910390f35b6102f3610b2c565b6040516103009190611c47565b60405180910390f35b610323600480360381019061031e9190611dff565b610b33565b005b61033f600480360381019061033a9190611ca0565b611014565b60405161034c9190611e6e565b60405180910390f35b61035d61102c565b60405161036a9190611eaa565b60405180910390f35b61038d60048036038101906103889190611d5a565b611052565b005b610397611074565b6040516103a49190611af5565b60405180910390f35b6103c760048036038101906103c29190611ca0565b61109a565b005b6103e360048036038101906103de9190611ca0565b61129b565b005b600260009054906101000a900473ffffffffffffffffffffffffffffffffffffffff1681565b60007f7965db0b000000000000000000000000000000000000000000000000000000007bffffffffffffffffffffffffffffffffffffffffffffffffffffffff1916827bffffffffffffffffffffffffffffffffffffffffffffffffffffffff1916148061047e575061047d82611321565b5b9050919050565b600060016000838152602001908152602001600020600101549050919050565b60066020528060005260406000206000915054906101000a900473ffffffffffffffffffffffffffffffffffffffff1681565b80600560003373ffffffffffffffffffffffffffffffffffffffff1673ffffffffffffffffffffffffffffffffffffffff16815260200190815260200160002054101561055a576040517f08c379a000000000000000000000000000000000000000000000000000000000815260040161055190611f22565b60405180910390fd5b80600560003373ffffffffffffffffffffffffffffffffffffffff1673ffffffffffffffffffffffffffffffffffffffff16815260200190815260200160002060008282546105a99190611f71565b925050819055506105fd3382600260009054906101000a900473ffffffffffffffffffffffffffffffffffffffff1673ffffffffffffffffffffffffffffffffffffffff1661138b9092919063ffffffff16565b3373ffffffffffffffffffffffffffffffffffffffff167f884edad9ce6fa2440d8a54cc123490eb96d2768479d49ff9c7366125a9424364826040516106439190611e6e565b60405180910390a250565b61065782610485565b6106608161140a565b61066a838361141e565b50505050565b61067861150f565b73ffffffffffffffffffffffffffffffffffffffff168173ffffffffffffffffffffffffffffffffffffffff16146106dc576040517f6697b23200000000000000000000000000000000000000000000000000000000815260040160405180910390fd5b6106e68282611517565b505050565b600073ffffffffffffffffffffffffffffffffffffffff168173ffffffffffffffffffffffffffffffffffffffff160361075a576040517f08c379a000000000000000000000000000000000000000000000000000000000815260040161075190611ff1565b60405180910390fd5b3373ffffffffffffffffffffffffffffffffffffffff16600660008373ffffffffffffffffffffffffffffffffffffffff1673ffffffffffffffffffffffffffffffffffffffff16815260200190815260200160002060009054906101000a900473ffffffffffffffffffffffffffffffffffffffff1673ffffffffffffffffffffffffffffffffffffffff1614610827576040517f08c379a000000000000000000000000000000000000000000000000000000000815260040161081e9061205d565b60405180910390fd5b6000600660008373ffffffffffffffffffffffffffffffffffffffff1673ffffffffffffffffffffffffffffffffffffffff16815260200190815260200160002060006101000a81548173ffffffffffffffffffffffffffffffffffffffff021916908373ffffffffffffffffffffffffffffffffffffffff1602179055508073ffffffffffffffffffffffffffffffffffffffff167f2670d9ae59f438038bce145dfd34771ffbed46630ee6fe4d32c165b44d72264e60405160405180910390a250565b61093b333083600260009054906101000a900473ffffffffffffffffffffffffffffffffffffffff1673ffffffffffffffffffffffffffffffffffffffff1661160a909392919063ffffffff16565b80600560003373ffffffffffffffffffffffffffffffffffffffff1673ffffffffffffffffffffffffffffffffffffffff168152602001908152602001600020600082825461098a919061207d565b9250508190555033600660003373ffffffffffffffffffffffffffffffffffffffff1673ffffffffffffffffffffffffffffffffffffffff16815260200190815260200160002060006101000a81548173ffffffffffffffffffffffffffffffffffffffff021916908373ffffffffffffffffffffffffffffffffffffffff1602179055503373ffffffffffffffffffffffffffffffffffffffff167f2da466a7b24304f47e87fa2e1e5a81b9831ce54fec19055ce277ca2f39ba42c482604051610a559190611e6e565b60405180910390a250565b610a6861168c565b610a726000611713565b565b60008060009054906101000a900473ffffffffffffffffffffffffffffffffffffffff16905090565b60006001600084815260200190815260200160002060000160008373ffffffffffffffffffffffffffffffffffffffff1673ffffffffffffffffffffffffffffffffffffffff16815260200190815260200160002060009054906101000a900460ff16905092915050565b7fe2b7fb3b832174769106daebcfd6d1970523240dda11281102db9363b83b0dc481565b6000801b81565b610b5d7fe2b7fb3b832174769106daebcfd6d1970523240dda11281102db9363b83b0dc433610a9d565b610b9c576040517f08c379a0000000000000000000000000000000000000000000000000000000008152600401610b93906120fd565b60405180910390fd5b60005a905060008473ffffffffffffffffffffffffffffffffffffffff168484604051610bca92919061215c565b6000604051808303816000865af19150503d8060008114610c07576040519150601f19603f3d011682016040523d82523d6000602084013e610c0c565b606091505b5050905080610c50576040517f08c379a0000000000000000000000000000000000000000000000000000000008152600401610c47906121c1565b60405180910390fd5b60005a83610c5e9190611f71565b90506000813a610c6e91906121e1565b90506000600660008973ffffffffffffffffffffffffffffffffffffffff1673ffffffffffffffffffffffffffffffffffffffff16815260200190815260200160002060009054906101000a900473ffffffffffffffffffffffffffffffffffffffff169050600073ffffffffffffffffffffffffffffffffffffffff168873ffffffffffffffffffffffffffffffffffffffff1603610d43576040517f08c379a0000000000000000000000000000000000000000000000000000000008152600401610d3a9061205d565b60405180910390fd5b6000600560008373ffffffffffffffffffffffffffffffffffffffff1673ffffffffffffffffffffffffffffffffffffffff1681526020019081526020016000205490506000600760009054906101000a900473ffffffffffffffffffffffffffffffffffffffff1673ffffffffffffffffffffffffffffffffffffffff166364ce3737600454600260009054906101000a900473ffffffffffffffffffffffffffffffffffffffff16600360009054906101000a900473ffffffffffffffffffffffffffffffffffffffff166040518463ffffffff1660e01b8152600401610e2e93929190612223565b602060405180830381865afa158015610e4b573d6000803e3d6000fd5b505050506040513d601f19601f82011682018060405250810190610e6f919061226f565b90506000600760009054906101000a900473ffffffffffffffffffffffffffffffffffffffff1673ffffffffffffffffffffffffffffffffffffffff1663ec342ad06040518163ffffffff1660e01b8152600401602060405180830381865afa158015610ee0573d6000803e3d6000fd5b505050506040513d601f19601f82011682018060405250810190610f04919061226f565b90506000818387610f1591906121e1565b610f1f91906122cb565b905080841015610f64576040517f08c379a0000000000000000000000000000000000000000000000000000000008152600401610f5b90612348565b60405180910390fd5b8084610f709190611f71565b935083600560008773ffffffffffffffffffffffffffffffffffffffff1673ffffffffffffffffffffffffffffffffffffffff168152602001908152602001600020819055503373ffffffffffffffffffffffffffffffffffffffff167f7dd684d9b29996680eb4c0ae7461d9983dadb8ebf5e04b3e99fae858334861b48883604051610ffe929190612368565b60405180910390a2505050505050505050505050565b60056020528060005260406000206000915090505481565b600760009054906101000a900473ffffffffffffffffffffffffffffffffffffffff1681565b61105b82610485565b6110648161140a565b61106e8383611517565b50505050565b600360009054906101000a900473ffffffffffffffffffffffffffffffffffffffff1681565b600073ffffffffffffffffffffffffffffffffffffffff168173ffffffffffffffffffffffffffffffffffffffff1603611109576040517f08c379a000000000000000000000000000000000000000000000000000000000815260040161110090611ff1565b60405180910390fd5b600073ffffffffffffffffffffffffffffffffffffffff16600660008373ffffffffffffffffffffffffffffffffffffffff1673ffffffffffffffffffffffffffffffffffffffff16815260200190815260200160002060009054906101000a900473ffffffffffffffffffffffffffffffffffffffff1673ffffffffffffffffffffffffffffffffffffffff16146111d7576040517f08c379a00000000000000000000000000000000000000000000000000000000081526004016111ce906123dd565b60405180910390fd5b33600660008373ffffffffffffffffffffffffffffffffffffffff1673ffffffffffffffffffffffffffffffffffffffff16815260200190815260200160002060006101000a81548173ffffffffffffffffffffffffffffffffffffffff021916908373ffffffffffffffffffffffffffffffffffffffff1602179055508073ffffffffffffffffffffffffffffffffffffffff167f7eb3c7851085a7c7e2aa1a622201d2fcd72a7edf43e9321c62367687b30bb76f60405160405180910390a250565b6112a361168c565b600073ffffffffffffffffffffffffffffffffffffffff168173ffffffffffffffffffffffffffffffffffffffff16036113155760006040517f1e4fbdf700000000000000000000000000000000000000000000000000000000815260040161130c9190611cdc565b60405180910390fd5b61131e81611713565b50565b60007f01ffc9a7000000000000000000000000000000000000000000000000000000007bffffffffffffffffffffffffffffffffffffffffffffffffffffffff1916827bffffffffffffffffffffffffffffffffffffffffffffffffffffffff1916149050919050565b611405838473ffffffffffffffffffffffffffffffffffffffff1663a9059cbb85856040516024016113be9291906123fd565b604051602081830303815290604052915060e01b6020820180517bffffffffffffffffffffffffffffffffffffffffffffffffffffffff83818316178352505050506117d7565b505050565b61141b8161141661150f565b61186e565b50565b600061142a8383610a9d565b61150457600180600085815260200190815260200160002060000160008473ffffffffffffffffffffffffffffffffffffffff1673ffffffffffffffffffffffffffffffffffffffff16815260200190815260200160002060006101000a81548160ff0219169083151502179055506114a161150f565b73ffffffffffffffffffffffffffffffffffffffff168273ffffffffffffffffffffffffffffffffffffffff16847f2f8788117e7eff1d82e926ec794901d17c78024a50270940304540a733656f0d60405160405180910390a460019050611509565b600090505b92915050565b600033905090565b60006115238383610a9d565b156115ff5760006001600085815260200190815260200160002060000160008473ffffffffffffffffffffffffffffffffffffffff1673ffffffffffffffffffffffffffffffffffffffff16815260200190815260200160002060006101000a81548160ff02191690831515021790555061159c61150f565b73ffffffffffffffffffffffffffffffffffffffff168273ffffffffffffffffffffffffffffffffffffffff16847ff6391f5c32d9c69d2a47ea670b442974b53935d1edc7fd64eb21e047a839171b60405160405180910390a460019050611604565b600090505b92915050565b611686848573ffffffffffffffffffffffffffffffffffffffff166323b872dd86868660405160240161163f93929190612426565b604051602081830303815290604052915060e01b6020820180517bffffffffffffffffffffffffffffffffffffffffffffffffffffffff83818316178352505050506117d7565b50505050565b61169461150f565b73ffffffffffffffffffffffffffffffffffffffff166116b2610a74565b73ffffffffffffffffffffffffffffffffffffffff1614611711576116d561150f565b6040517f118cdaa70000000000000000000000000000000000000000000000000000000081526004016117089190611cdc565b60405180910390fd5b565b60008060009054906101000a900473ffffffffffffffffffffffffffffffffffffffff169050816000806101000a81548173ffffffffffffffffffffffffffffffffffffffff021916908373ffffffffffffffffffffffffffffffffffffffff1602179055508173ffffffffffffffffffffffffffffffffffffffff168173ffffffffffffffffffffffffffffffffffffffff167f8be0079c531659141344cd1fd0a4f28419497f9722a3daafe3b4186f6b6457e060405160405180910390a35050565b6000611802828473ffffffffffffffffffffffffffffffffffffffff166118bf90919063ffffffff16565b905060008151141580156118275750808060200190518101906118259190612489565b155b1561186957826040517f5274afe70000000000000000000000000000000000000000000000000000000081526004016118609190611cdc565b60405180910390fd5b505050565b6118788282610a9d565b6118bb5780826040517fe2517d3f0000000000000000000000000000000000000000000000000000000081526004016118b29291906124b6565b60405180910390fd5b5050565b60606118cd838360006118d5565b905092915050565b60608147101561191c57306040517fcd7860590000000000000000000000000000000000000000000000000000000081526004016119139190611cdc565b60405180910390fd5b6000808573ffffffffffffffffffffffffffffffffffffffff1684866040516119459190612545565b60006040518083038185875af1925050503d8060008114611982576040519150601f19603f3d011682016040523d82523d6000602084013e611987565b606091505b50915091506119978683836119a2565b925050509392505050565b6060826119b7576119b282611a31565b611a29565b600082511480156119df575060008473ffffffffffffffffffffffffffffffffffffffff163b145b15611a2157836040517f9996b315000000000000000000000000000000000000000000000000000000008152600401611a189190611cdc565b60405180910390fd5b819050611a2a565b5b9392505050565b600081511115611a445780518082602001fd5b6040517f1425ea4200000000000000000000000000000000000000000000000000000000815260040160405180910390fd5b600073ffffffffffffffffffffffffffffffffffffffff82169050919050565b6000819050919050565b6000611abb611ab6611ab184611a76565b611a96565b611a76565b9050919050565b6000611acd82611aa0565b9050919050565b6000611adf82611ac2565b9050919050565b611aef81611ad4565b82525050565b6000602082019050611b0a6000830184611ae6565b92915050565b600080fd5b600080fd5b60007fffffffff0000000000000000000000000000000000000000000000000000000082169050919050565b611b4f81611b1a565b8114611b5a57600080fd5b50565b600081359050611b6c81611b46565b92915050565b600060208284031215611b8857611b87611b10565b5b6000611b9684828501611b5d565b91505092915050565b60008115159050919050565b611bb481611b9f565b82525050565b6000602082019050611bcf6000830184611bab565b92915050565b6000819050919050565b611be881611bd5565b8114611bf357600080fd5b50565b600081359050611c0581611bdf565b92915050565b600060208284031215611c2157611c20611b10565b5b6000611c2f84828501611bf6565b91505092915050565b611c4181611bd5565b82525050565b6000602082019050611c5c6000830184611c38565b92915050565b6000611c6d82611a76565b9050919050565b611c7d81611c62565b8114611c8857600080fd5b50565b600081359050611c9a81611c74565b92915050565b600060208284031215611cb657611cb5611b10565b5b6000611cc484828501611c8b565b91505092915050565b611cd681611c62565b82525050565b6000602082019050611cf16000830184611ccd565b92915050565b6000819050919050565b611d0a81611cf7565b8114611d1557600080fd5b50565b600081359050611d2781611d01565b92915050565b600060208284031215611d4357611d42611b10565b5b6000611d5184828501611d18565b91505092915050565b60008060408385031215611d7157611d70611b10565b5b6000611d7f85828601611bf6565b9250506020611d9085828601611c8b565b9150509250929050565b600080fd5b600080fd5b600080fd5b60008083601f840112611dbf57611dbe611d9a565b5b8235905067ffffffffffffffff811115611ddc57611ddb611d9f565b5b602083019150836001820283011115611df857611df7611da4565b5b9250929050565b600080600060408486031215611e1857611e17611b10565b5b6000611e2686828701611c8b565b935050602084013567ffffffffffffffff811115611e4757611e46611b15565b5b611e5386828701611da9565b92509250509250925092565b611e6881611cf7565b82525050565b6000602082019050611e836000830184611e5f565b92915050565b6000611e9482611ac2565b9050919050565b611ea481611e89565b82525050565b6000602082019050611ebf6000830184611e9b565b92915050565b600082825260208201905092915050565b7f496e73756666696369656e742062616c616e6365000000000000000000000000600082015250565b6000611f0c601483611ec5565b9150611f1782611ed6565b602082019050919050565b60006020820190508181036000830152611f3b81611eff565b9050919050565b7f4e487b7100000000000000000000000000000000000000000000000000000000600052601160045260246000fd5b6000611f7c82611cf7565b9150611f8783611cf7565b9250828203905081811115611f9f57611f9e611f42565b5b92915050565b7f496e76616c696420616464726573730000000000000000000000000000000000600082015250565b6000611fdb600f83611ec5565b9150611fe682611fa5565b602082019050919050565b6000602082019050818103600083015261200a81611fce565b9050919050565b7f41646472657373206e6f7420616c6c6f776c6973746564000000000000000000600082015250565b6000612047601783611ec5565b915061205282612011565b602082019050919050565b600060208201905081810360008301526120768161203a565b9050919050565b600061208882611cf7565b915061209383611cf7565b92508282019050808211156120ab576120aa611f42565b5b92915050565b7f43616c6c6572206973206e6f7420612072656c61796572000000000000000000600082015250565b60006120e7601783611ec5565b91506120f2826120b1565b602082019050919050565b60006020820190508181036000830152612116816120da565b9050919050565b600081905092915050565b82818337600083830152505050565b6000612143838561211d565b9350612150838584612128565b82840190509392505050565b6000612169828486612137565b91508190509392505050565b7f53616665207472616e73616374696f6e20726576657274656400000000000000600082015250565b60006121ab601983611ec5565b91506121b682612175565b602082019050919050565b600060208201905081810360008301526121da8161219e565b9050919050565b60006121ec82611cf7565b91506121f783611cf7565b925082820261220581611cf7565b9150828204841483151761221c5761221b611f42565b5b5092915050565b60006060820190506122386000830186611c38565b6122456020830185611ccd565b6122526040830184611ccd565b949350505050565b60008151905061226981611d01565b92915050565b60006020828403121561228557612284611b10565b5b60006122938482850161225a565b91505092915050565b7f4e487b7100000000000000000000000000000000000000000000000000000000600052601260045260246000fd5b60006122d682611cf7565b91506122e183611cf7565b9250826122f1576122f061229c565b5b828204905092915050565b7f496e73756666696369656e74206465706f73697420666f722067617300000000600082015250565b6000612332601c83611ec5565b915061233d826122fc565b602082019050919050565b6000602082019050818103600083015261236181612325565b9050919050565b600060408201905061237d6000830185611e5f565b61238a6020830184611e5f565b9392505050565b7f4164647265737320616c726561647920616c6c6f776c69737465640000000000600082015250565b60006123c7601b83611ec5565b91506123d282612391565b602082019050919050565b600060208201905081810360008301526123f6816123ba565b9050919050565b60006040820190506124126000830185611ccd565b61241f6020830184611e5f565b9392505050565b600060608201905061243b6000830186611ccd565b6124486020830185611ccd565b6124556040830184611e5f565b949350505050565b61246681611b9f565b811461247157600080fd5b50565b6000815190506124838161245d565b92915050565b60006020828403121561249f5761249e611b10565b5b60006124ad84828501612474565b91505092915050565b60006040820190506124cb6000830185611ccd565b6124d86020830184611c38565b9392505050565b600081519050919050565b60005b838110156125085780820151818401526020810190506124ed565b60008484015250505050565b600061251f826124df565b612529818561211d565b93506125398185602086016124ea565b80840191505092915050565b60006125518284612514565b91508190509291505056fea26469706673582212209c83a165e322f2e4ee992adb8be4be975f5ca118a581a8f7e586c3b70f2c1abe64736f6c63430008180033",
  "linkReferences": {},
  "deployedLinkReferences": {}
}