{
  "_format": "hh-sol-artifact-1",
  "contractName": "ServiceStakingToken",
  "sourceName": "contracts/staking/ServiceStakingToken.sol",
  "abi": [
    {
      "inputs": [
        {
          "internalType": "address",
          "name": "_agentMech",
          "type": "address"
        },
        {
          "internalType": "uint256",
          "name": "_livenessRatio",
          "type": "uint256"
        }
      ],
      "stateMutability": "nonpayable",
      "type": "constructor"
    },
    {
      "inputs": [],
      "name": "ZeroMechAgentAddress",
      "type": "error"
    },
    {
      "inputs": [],
      "name": "ZeroValue",
      "type": "error"
    },
    {
      "inputs": [],
      "name": "agentMech",
      "outputs": [
        {
          "internalType": "address",
          "name": "",
          "type": "address"
        }
      ],
      "stateMutability": "view",
      "type": "function"
    },
    {
      "inputs": [
        {
          "internalType": "address",
          "name": "multisig",
          "type": "address"
        }
      ],
      "name": "getMultisigNonces",
      "outputs": [
        {
          "internalType": "uint256[]",
          "name": "nonces",
          "type": "uint256[]"
        }
      ],
      "stateMutability": "view",
      "type": "function"
    },
    {
      "inputs": [
        {
          "internalType": "uint256[]",
          "name": "curNonces",
          "type": "uint256[]"
        },
        {
          "internalType": "uint256[]",
          "name": "lastNonces",
          "type": "uint256[]"
        },
        {
          "internalType": "uint256",
          "name": "ts",
          "type": "uint256"
        }
      ],
      "name": "isRatioPass",
      "outputs": [
        {
          "internalType": "bool",
          "name": "ratioPass",
          "type": "bool"
        }
      ],
      "stateMutability": "view",
      "type": "function"
    },
    {
      "inputs": [],
      "name": "livenessRatio",
      "outputs": [
        {
          "internalType": "uint256",
          "name": "",
          "type": "uint256"
        }
      ],
      "stateMutability": "view",
      "type": "function"
    }
  ],
  "bytecode": "0x6102606040523480156200001257600080fd5b506040516200383a3803806200383a833981016040819052620000359162000453565b8484828260000151600014806200004e57506020830151155b806200005c575060a0830151155b806200006a575060c0830151155b8062000078575060e0830151155b806200008657506060830151155b806200009457506080830151155b15620000b357604051637c946ed760e01b815260040160405180910390fd5b826080015183606001511015620000f5576060830151608084015160405163491a2bb160e01b8152600481019290925260248201526044015b60405180910390fd5b6002836040015110156200012d57604080840151905163491a2bb160e01b8152600481019190915260026024820152604401620000ec565b6001600160a01b038216620001555760405163d92e233d60e01b815260040160405180910390fd5b82516080908152602084015160a0908152604085015160c09081529185015160e0908152908501516101005290840151610120908152908401516101409081526001600160a01b0384166101a0529084015161016052830151610180526000805b846101000151518110156200029257818561010001518281518110620001e057620001e062000576565b6020026020010151116200022d57846101000151818151811062000208576200020862000576565b6020026020010151604051632ab10b0b60e21b8152600401620000ec91815260200190565b846101000151818151811062000247576200024762000576565b602090810291909101015160048054600181810183556000929092527f8a35acfbc15ff81a39ae7d344fd709f28e8600b4aa8c65c6b64bfe7fe36bd19b0182905590925001620001b6565b5081620002b257604051637c946ed760e01b815260040160405180910390fd5b6101c0829052610100516060850151620002cd91906200058c565b6101e052610100516080850151620002e691906200058c565b6102005250504260035550506001600160a01b03821615806200031057506001600160a01b038316155b156200032f5760405163d92e233d60e01b815260040160405180910390fd5b506001600160a01b0390811661024052166102205250620005b89050565b634e487b7160e01b600052604160045260246000fd5b60405161016081016001600160401b03811182821017156200038957620003896200034d565b60405290565b600082601f830112620003a157600080fd5b815160206001600160401b0380831115620003c057620003c06200034d565b8260051b604051601f19603f83011681018181108482111715620003e857620003e86200034d565b60405293845260208187018101949081019250878511156200040957600080fd5b6020870191505b848210156200042b5781518352918301919083019062000410565b979650505050505050565b80516001600160a01b03811681146200044e57600080fd5b919050565b600080600080600060a086880312156200046c57600080fd5b85516001600160401b03808211156200048457600080fd5b90870190610160828a0312156200049a57600080fd5b620004a462000363565b825181526020830151602082015260408301516040820152606083015160608201526080830151608082015260a083015160a082015260c083015160c082015260e083015160e082015261010080840151838111156200050357600080fd5b620005118c8287016200038f565b918301919091525061012083810151908201526101409283015192810192909252509450620005436020870162000436565b9350620005536040870162000436565b9250620005636060870162000436565b9150608086015190509295509295909350565b634e487b7160e01b600052603260045260246000fd5b8082028115828204841417620005b257634e487b7160e01b600052601160045260246000fd5b92915050565b60805160a05160c05160e05161010051610120516101405161016051610180516101a0516101c0516101e05161020051610220516102405161311962000721600039600081816104110152818161130901528181611c1401528181611d1e0152611d6201526000818161030501528181611ca40152611e0e01526000818161068e015281816118a50152611b1401526000818161024b0152818161074d015261079f01526000818161044b0152610fca0152600081816105cf01528181610a0101528181610d8601526111bd0152600081816105f601528181610e4e0152610e7d01526000818161036201528181610ec40152610ef80152600081816103c30152610e0c0152600081816103ea015261294a01526000818161038901528181611bc60152611fb80152600061049b01526000818161061d0152611d9901526000818161064401526122ae0152600081816102de01528181610d0d0152610d4101526131196000f3fe608060405234801561001057600080fd5b50600436106102415760003560e01c8063a0ed60e011610145578063cbcf252a116100bd578063eb338c961161008c578063f4dce71411610071578063f4dce71414610681578063f86ad2b614610689578063ffa1ad74146106b057600080fd5b8063eb338c9614610666578063f189e85a1461067957600080fd5b8063cbcf252a146105ca578063e1f1176d146105f1578063e77cdcc914610618578063eacdaabc1461063f57600080fd5b8063b69ef8a811610114578063c2c4c5c1116100f9578063c2c4c5c11461057e578063c889921d14610597578063cae2a5f0146105aa57600080fd5b8063b69ef8a814610562578063b6b55f251461056b57600080fd5b8063a0ed60e014610496578063a694fc3a146104bd578063a74466ad146104d0578063b15087601461054d57600080fd5b806352c824f5116101d857806372f702f3116101a7578063809cee2f1161018c578063809cee2f1461044657806382a8ea581461046d578063879d90901461048d57600080fd5b806372f702f31461040c57806378e061361461043357600080fd5b806352c824f51461038457806356e76058146103ab5780635829c5ec146103be578063592cf3fb146103e557600080fd5b8063287140511161021457806328714051146103005780632e17de781461033f5780633e7329971461035457806342cde4e81461035d57600080fd5b806308ae7e541461024657806314b19c5a14610280578063150b7a021461028957806316a75172146102d9575b600080fd5b61026d7f000000000000000000000000000000000000000000000000000000000000000081565b6040519081526020015b60405180910390f35b61026d60005481565b6102a8610297366004612a0a565b630a85bd0160e11b95945050505050565b6040517fffffffff000000000000000000000000000000000000000000000000000000009091168152602001610277565b61026d7f000000000000000000000000000000000000000000000000000000000000000081565b6103277f000000000000000000000000000000000000000000000000000000000000000081565b6040516001600160a01b039091168152602001610277565b61035261034d366004612aa9565b6106e1565b005b61026d60035481565b61026d7f000000000000000000000000000000000000000000000000000000000000000081565b61026d7f000000000000000000000000000000000000000000000000000000000000000081565b61026d6103b9366004612aa9565b610acf565b61026d7f000000000000000000000000000000000000000000000000000000000000000081565b61026d7f000000000000000000000000000000000000000000000000000000000000000081565b6103277f000000000000000000000000000000000000000000000000000000000000000081565b61026d610441366004612aa9565b610af0565b61026d7f000000000000000000000000000000000000000000000000000000000000000081565b61048061047b366004612aa9565b610bba565b6040516102779190612afe565b61026d60025481565b61026d7f000000000000000000000000000000000000000000000000000000000000000081565b6103526104cb366004612aa9565b610cb1565b61051a6104de366004612aa9565b6005602081905260009182526040909120805460018201546003830154600484015493909401546001600160a01b039283169492909116929085565b604080516001600160a01b039687168152959094166020860152928401919091526060830152608082015260a001610277565b61055561127e565b6040516102779190612b65565b61026d60015481565b610352610579366004612aa9565b6112d6565b610586611378565b604051610277959493929190612b78565b61026d6105a5366004612aa9565b6119ad565b6105bd6105b8366004612aa9565b611a69565b6040516102779190612c3d565b6103277f000000000000000000000000000000000000000000000000000000000000000081565b61026d7f000000000000000000000000000000000000000000000000000000000000000081565b61026d7f000000000000000000000000000000000000000000000000000000000000000081565b61026d7f000000000000000000000000000000000000000000000000000000000000000081565b61026d610674366004612aa9565b611b5c565b610555611b6c565b61026d611bc2565b61026d7f000000000000000000000000000000000000000000000000000000000000000081565b6106d4604051806040016040528060058152602001640302e312e360dc1b81525081565b6040516102779190612c65565b600081815260056020526040902060018101546001600160a01b0316331461073857600181015460405163521eb56d60e11b81523360048201526001600160a01b0390911660248201526044015b60405180910390fd5b600381015460006107498242612cca565b90507f0000000000000000000000000000000000000000000000000000000000000000811115801561077d57506000600254115b156107cb5760405163ba2bbc6b60e01b815260048101859052602481018290527f0000000000000000000000000000000000000000000000000000000000000000604482015260640161072f565b6000806107d6611378565b945050505091508151600003610837576107ee611b6c565b9150815167ffffffffffffffff81111561080a5761080a612cdd565b604051908082528060200260200182016040528015610833578160200160208202803683370190505b5090505b6000805b8351821015610898578783838151811061085757610857612cf3565b60200260200101510315610898578784838151811061087857610878612cf3565b60200260200101510361088d57506001610898565b81600101915061083b565b600487015460028801805460408051602080840282018101909252828152600093909290918301828280156108ec57602002820191906000526020600020905b8154815260200190600101908083116108d8575b50508c5460008f8152600560205260408120805473ffffffffffffffffffffffffffffffffffffffff19908116825560018201805490911690559596506001600160a01b03909116949350915061094890506002830182612974565b506000600382018190556004820181905560059091015583156109d7576006805461097590600190612cca565b8154811061098557610985612cf3565b9060005260206000200154600686815481106109a3576109a3612cf3565b60009182526020909120015560068054806109c0576109c0612d09565b600190038181906000526020600020016000905590555b604051632142170760e11b8152306004820152336024820152604481018c90526001600160a01b037f000000000000000000000000000000000000000000000000000000000000000016906342842e0e90606401600060405180830381600087803b158015610a4557600080fd5b505af1158015610a59573d6000803e3d6000fd5b505050506000831115610a7057610a708184611bf7565b806001600160a01b0316336001600160a01b03168c7f950733f4c0bf951b8e770f3cc619a4288e7b59b1236d59aeaf2c238488e8ae816000548688604051610aba93929190612d1f565b60405180910390a45050505050505050505050565b60048181548110610adf57600080fd5b600091825260209091200154905081565b6000818152600560209081526040808320815160c08101835281546001600160a01b0390811682526001830154168185015260028201805484518187028101870186528181528796939586019390929190830182828015610b7057602002820191906000526020600020905b815481526020019060010190808311610b5c575b505050505081526020016003820154815260200160048201548152602001600582015481525050905080608001519150610ba9836119ad565b610bb39083612d48565b9392505050565b610c056040518060c0016040528060006001600160a01b0316815260200160006001600160a01b03168152602001606081526020016000815260200160008152602001600081525090565b600082815260056020908152604091829020825160c08101845281546001600160a01b0390811682526001830154168184015260028201805485518186028101860187528181529295939493860193830182828015610c8357602002820191906000526020600020905b815481526020019060010190808311610c6f575b5050505050815260200160038201548152602001600482015481526020016005820154815250509050919050565b600254600003610cd45760405163afb0be3360e01b815260040160405180910390fd5b6000818152600560205260409020600381015415610d085760405163b4817ce760e01b81526004810183905260240161072f565b6006547f00000000000000000000000000000000000000000000000000000000000000008103610d6d5760405163fd20861560e01b81527f0000000000000000000000000000000000000000000000000000000000000000600482015260240161072f565b60405163ef0e239b60e01b8152600481018490526000907f00000000000000000000000000000000000000000000000000000000000000006001600160a01b03169063ef0e239b90602401600060405180830381865afa158015610dd5573d6000803e3d6000fd5b505050506040513d6000823e601f3d908101601f19168201604052610dfd9190810190612e79565b9050806080015163ffffffff167f000000000000000000000000000000000000000000000000000000000000000014610e4c57604051637ad404bf60e11b81526004810185905260240161072f565b7f000000000000000000000000000000000000000000000000000000000000000015801590610e9f575080604001517f000000000000000000000000000000000000000000000000000000000000000014155b15610ec057604051637ad404bf60e11b81526004810185905260240161072f565b60007f0000000000000000000000000000000000000000000000000000000000000000118015610f1a5750806060015163ffffffff167f000000000000000000000000000000000000000000000000000000000000000014155b15610f3b57604051637ad404bf60e11b81526004810185905260240161072f565b60048160c001516005811115610f5357610f53612c27565b14610f92578060c001516005811115610f6e57610f6e612c27565b604051633c053f9d60e21b815260048101919091526024810185905260440161072f565b600081602001516001600160a01b0316803b806020016040519081016040528181526000908060200190933c805190602001209050807f00000000000000000000000000000000000000000000000000000000000000001461101757602082015160405162a2307960e51b81526001600160a01b03909116600482015260240161072f565b60045480156110e05760e08301515181811461104957604051637ad404bf60e11b81526004810188905260240161072f565b60005b818110156110dd578460e00151818151811061106a5761106a612cf3565b602002602001015163ffffffff166004828154811061108b5761108b612cf3565b9060005260206000200154146110d557600481815481106110ae576110ae612cf3565b9060005260206000200154604051632ab10b0b60e21b815260040161072f91815260200190565b60010161104c565b50505b6111018684600001516bffffffffffffffffffffffff168560e00151611c81565b602083015185546001600160a01b03821673ffffffffffffffffffffffffffffffffffffffff199182161787556001870180549091163317905560009061114790611f02565b805190915061115f9060028801906020840190612995565b50426003870155600680546001810182556000919091527ff652222313e28459528d920b65115c16c04f3efc82aaedc97be59f3f377c0d3f01879055604051632142170760e11b8152336004820152306024820152604481018890527f00000000000000000000000000000000000000000000000000000000000000006001600160a01b0316906342842e0e90606401600060405180830381600087803b15801561120957600080fd5b505af115801561121d573d6000803e3d6000fd5b5050505083602001516001600160a01b0316336001600160a01b0316887faa6b005b4958114a0c90492461c24af6525ae0178db7fbf44125ae9217c69ccb6000548560405161126d929190612f57565b60405180910390a450505050505050565b606060048054806020026020016040519081016040528092919081815260200182805480156112cc57602002820191906000526020600020905b8154815260200190600101908083116112b8575b5050505050905090565b6000816001546112e69190612d48565b90506000826002546112f89190612d48565b6001839055600281905590506113307f0000000000000000000000000000000000000000000000000000000000000000333086611f13565b604080518481526020810184905290810182905233907f36af321ec8d3c75236829c5317affd40ddb308863a1236d2d277a4025cccee1e9060600160405180910390a2505050565b6060806060806060600080600080600080600080611394611f9d565b97509750975097509750975097509750606080845167ffffffffffffffff8111156113c1576113c1612cdd565b6040519080825280602002602001820160405280156113ea578160200160208202803683370190505b509a506000891561177d578967ffffffffffffffff81111561140e5761140e612cdd565b604051908082528060200260200182016040528015611437578160200160208202803683370190505b5092508967ffffffffffffffff81111561145357611453612cdd565b60405190808252806020026020018201604052801561147c578160200160208202803683370190505b5091508a8911156116865760008060015b8c811015611579578b8e8b83815181106114a9576114a9612cf3565b60200260200101516114bb9190612f70565b6114c59190612f87565b92506114d18383612d48565b91508a81815181106114e5576114e5612cf3565b602002602001015193508a818151811061150157611501612cf3565b602002602001015186828151811061151b5761151b612cf3565b6020026020010181815250508285828151811061153a5761153a612cf3565b6020026020010181815250508260056000868152602001908152602001600020600401600082825461156c9190612d48565b909155505060010161148d565b508a8d8a60008151811061158f5761158f612cf3565b60200260200101516115a19190612f70565b6115ab9190612f87565b91506115b78282612d48565b9050896000815181106115cc576115cc612cf3565b60200260200101519250896000815181106115e9576115e9612cf3565b60200260200101518560008151811061160457611604612cf3565b602002602001018181525050808d111561162f57611622818e612cca565b61162c9083612d48565b91505b818460008151811061164357611643612cf3565b602002602001018181525050816005600085815260200190815260200160002060040160008282546116759190612d48565b9091555060009d5061177792505050565b60005b8a811015611769578881815181106116a3576116a3612cf3565b602002602001015191508881815181106116bf576116bf612cf3565b60200260200101518482815181106116d9576116d9612cf3565b6020026020010181815250508781815181106116f7576116f7612cf3565b602002602001015183828151811061171157611711612cf3565b60200260200101818152505087818151811061172f5761172f612cf3565b602002602001015160056000848152602001908152602001600020600401600082825461175c9190612d48565b9091555050600101611689565b50611774898c612cca565b9a505b60028b90555b855115611997576000995060005b8651811015611930578681815181106117a6576117a6612cf3565b602002602001015191508581815181106117c2576117c2612cf3565b60200260200101516005600084815260200190815260200160002060020190805190602001906117f3929190612995565b50600085828151811061180857611808612cf3565b602002602001015111156119155784818151811061182857611828612cf3565b602002602001015160056000848152602001908152602001600020600501546118519190612d48565b85828151811061186357611863612cf3565b60200260200101818152505084818151811061188157611881612cf3565b602002602001015160056000848152602001908152602001600020600501819055507f00000000000000000000000000000000000000000000000000000000000000008582815181106118d6576118d6612cf3565b6020026020010151111561191057818d82815181106118f7576118f7612cf3565b60209081029190910101528a61190c81612fa9565b9b50505b611928565b6000828152600560208190526040822001555b60010161178b565b508915611942576119428c858c61239b565b42600355600054611954816001612d48565b60005560405181907f06a98bdd4732811ab3214800ed1ada2dce66a2bce301d250c3ca7d6b461ee6669061198d908f9088908890612fc2565b60405180910390a2505b50939e929d509b50919950969750505050505050565b6000806000806000806119be611f9d565b5050509450945094509450945060005b84811015611a5e57878382815181106119e9576119e9612cf3565b602002602001015103611a565785841115611a35578386838381518110611a1257611a12612cf3565b6020026020010151611a249190612f70565b611a2e9190612f87565b9650611a5e565b818181518110611a4757611a47612cf3565b60200260200101519650611a5e565b6001016119ce565b505050505050919050565b6000818152600560209081526040808320815160c08101835281546001600160a01b0390811682526001830154168185015260028201805484518187028101870186528181528796939586019390929190830182828015611ae957602002820191906000526020600020905b815481526020019060010190808311611ad5575b50505050508152602001600382015481526020016004820154815260200160058201548152505090507f00000000000000000000000000000000000000000000000000000000000000008160a001511115611b475760029150611b56565b606081015115611b5657600191505b50919050565b60068181548110610adf57600080fd5b606060068054806020026020016040519081016040528092919081815260200182805480156112cc57602002820191906000526020600020908154815260200190600101908083116112b8575050505050905090565b60007f0000000000000000000000000000000000000000000000000000000000000000600354611bf29190612d48565b905090565b8060016000828254611c099190612cca565b90915550611c3a90507f00000000000000000000000000000000000000000000000000000000000000008383612760565b816001600160a01b03167f884edad9ce6fa2440d8a54cc123490eb96d2768479d49ff9c7366125a942436482604051611c7591815260200190565b60405180910390a25050565b604051633cebfa4f60e01b81526004810184905260009081906001600160a01b037f00000000000000000000000000000000000000000000000000000000000000001690633cebfa4f906024016040805180830381865afa158015611cea573d6000803e3d6000fd5b505050506040513d601f19601f82011682018060405250810190611d0e9190612ff7565b91509150816001600160a01b03167f00000000000000000000000000000000000000000000000000000000000000006001600160a01b031614611d9757604051630b80380d60e31b81526001600160a01b037f0000000000000000000000000000000000000000000000000000000000000000811660048301528316602482015260440161072f565b7f00000000000000000000000000000000000000000000000000000000000000006bffffffffffffffffffffffff8216811115611dfe57604051632b30b24760e21b81526bffffffffffffffffffffffff831660048201526024810182905260440161072f565b60005b8451811015611ef95760007f00000000000000000000000000000000000000000000000000000000000000006001600160a01b03166375c1f93489888581518110611e4e57611e4e612cf3565b60200260200101516040518363ffffffff1660e01b8152600401611e8292919091825263ffffffff16602082015260400190565b602060405180830381865afa158015611e9f573d6000803e3d6000fd5b505050506040513d601f19601f82011682018060405250810190611ec3919061302c565b905082811015611ef057604051632b30b24760e21b8152600481018290526024810184905260440161072f565b50600101611e01565b50505050505050565b6060611f0d826127e3565b92915050565b60006040516323b872dd60e01b6000528460045283602452826044526020600060646000808a5af13d15601f3d1160016000511416171691506000606052806040525080611f965760405163abae3d6d60e01b81526001600160a01b0380871660048301528086166024830152841660448201526064810183905260840161072f565b5050505050565b600080600060608060608060606000600354905060025498507f00000000000000000000000000000000000000000000000000000000000000008142611fe39190612cca565b10158015611ff15750600089115b15612390576006548067ffffffffffffffff81111561201257612012612cdd565b60405190808252806020026020018201604052801561203b578160200160208202803683370190505b5094508067ffffffffffffffff81111561205757612057612cdd565b604051908082528060200260200182016040528015612080578160200160208202803683370190505b5096508067ffffffffffffffff81111561209c5761209c612cdd565b6040519080825280602002602001820160405280156120c5578160200160208202803683370190505b5095508067ffffffffffffffff8111156120e1576120e1612cdd565b60405190808252806020026020018201604052801561211457816020015b60608152602001906001900390816120ff5790505b5093508067ffffffffffffffff81111561213057612130612cdd565b604051908082528060200260200182016040528015612159578160200160208202803683370190505b50925060005b8181101561238d576006818154811061217a5761217a612cf3565b906000526020600020015486828151811061219757612197612cf3565b6020026020010181815250506000600560008884815181106121bb576121bb612cf3565b602090810291909101810151825281019190915260400160002080549091506121ec906001600160a01b0316611f02565b8683815181106121fe576121fe612cf3565b6020908102919091010152600381015484908181111561221c578091505b6122268242612cca565b905060006122a089868151811061223f5761223f612cf3565b60200260200101518560020180548060200260200160405190810160405280929190818152602001828054801561229557602002820191906000526020600020905b815481526020019060010190808311612281575b50505050508461288b565b9050801561235e576122d2827f0000000000000000000000000000000000000000000000000000000000000000612f70565b8b8f815181106122e4576122e4612cf3565b6020026020010181815250508a8e8151811061230257612302612cf3565b60200260200101518d6123159190612d48565b9c5089858151811061232957612329612cf3565b60200260200101518c8f8151811061234357612343612cf3565b60209081029190910101526123578e612fa9565b9d5061237e565b8188868151811061237157612371612cf3565b6020026020010181815250505b5050505080600101905061215f565b50505b509091929394959697565b825160008267ffffffffffffffff8111156123b8576123b8612cdd565b6040519080825280602002602001820160405280156123e1578160200160208202803683370190505b50905060008367ffffffffffffffff8111156123ff576123ff612cdd565b604051908082528060200260200182016040528015612428578160200160208202803683370190505b50905060008467ffffffffffffffff81111561244657612446612cdd565b60405190808252806020026020018201604052801561246f578160200160208202803683370190505b50905060008567ffffffffffffffff81111561248d5761248d612cdd565b6040519080825280602002602001820160405280156124b6578160200160208202803683370190505b50905060008667ffffffffffffffff8111156124d4576124d4612cdd565b6040519080825280602002602001820160405280156124fd578160200160208202803683370190505b50905060008060005b8881101561265d5760008c828151811061252257612522612cf3565b60200260200101511115612655578b818151811061254257612542612cf3565b602002602001015191508188848151811061255f5761255f612cf3565b6020908102919091018101919091526000838152600590915260409020600181015488516001600160a01b03909116908990869081106125a1576125a1612cf3565b6001600160a01b039283166020918202929092010152815488519116908890869081106125d0576125d0612cf3565b60200260200101906001600160a01b031690816001600160a01b0316815250508b828151811061260257612602612cf3565b602002602001015186858151811061261c5761261c612cf3565b6020026020010181815250508185858151811061263b5761263b612cf3565b60209081029190910101528361265081612fa9565b945050505b600101612506565b50885b8015612712578861267081613045565b99506000905084612682600184612cca565b8151811061269257612692612cf3565b6020026020010151905060068a815481106126af576126af612cf3565b9060005260206000200154600682815481106126cd576126cd612cf3565b60009182526020909120015560068054806126ea576126ea612d09565b60019003818190600052602060002001600090559055508061270b90613045565b9050612660565b506000547fd19a3d42ed383465e4058c322d9411aeac76ddb8454d22e139fc99808bd569528888888860405161274b9493929190613096565b60405180910390a25050505050505050505050565b600060405163a9059cbb60e01b6000528360045282602452602060006044600080895af13d15601f3d11600160005114161716915060006060528060405250806127dd5760405163abae3d6d60e01b81526001600160a01b038086166004830152306024830152841660448201526064810183905260840161072f565b50505050565b60408051600180825281830190925260609160208083019080368337019050509050816001600160a01b031663affed0e06040518163ffffffff1660e01b8152600401602060405180830381865afa158015612843573d6000803e3d6000fd5b505050506040513d601f19601f82011682018060405250810190612867919061302c565b8160008151811061287a5761287a612cf3565b602002602001018181525050919050565b60006128988484846128a0565b949350505050565b600080821180156128e45750826000815181106128bf576128bf612cf3565b6020026020010151846000815181106128da576128da612cf3565b6020026020010151115b15610bb357600082846000815181106128ff576128ff612cf3565b60200260200101518660008151811061291a5761291a612cf3565b602002602001015161292c9190612cca565b61293e90670de0b6b3a7640000612f70565b6129489190612f87565b7f0000000000000000000000000000000000000000000000000000000000000000111595945050505050565b508054600082559060005260206000209081019061299291906129e0565b50565b8280548282559060005260206000209081019282156129d0579160200282015b828111156129d05782518255916020019190600101906129b5565b506129dc9291506129e0565b5090565b5b808211156129dc57600081556001016129e1565b6001600160a01b038116811461299257600080fd5b600080600080600060808688031215612a2257600080fd5b8535612a2d816129f5565b94506020860135612a3d816129f5565b935060408601359250606086013567ffffffffffffffff80821115612a6157600080fd5b818801915088601f830112612a7557600080fd5b813581811115612a8457600080fd5b896020828501011115612a9657600080fd5b9699959850939650602001949392505050565b600060208284031215612abb57600080fd5b5035919050565b60008151808452602080850194506020840160005b83811015612af357815187529582019590820190600101612ad7565b509495945050505050565b6020815260006001600160a01b0380845116602084015280602085015116604084015250604083015160c06060840152612b3b60e0840182612ac2565b905060608401516080840152608084015160a084015260a084015160c08401528091505092915050565b602081526000610bb36020830184612ac2565b60a081526000612b8b60a0830188612ac2565b6020838203818501528188518084528284019150828160051b850101838b0160005b83811015612bdb57601f19878403018552612bc9838351612ac2565b94860194925090850190600101612bad565b50508681036040880152612bef818b612ac2565b9450505050508281036060840152612c078186612ac2565b90508281036080840152612c1b8185612ac2565b98975050505050505050565b634e487b7160e01b600052602160045260246000fd5b6020810160038310612c5f57634e487b7160e01b600052602160045260246000fd5b91905290565b60006020808352835180602085015260005b81811015612c9357858101830151858201604001528201612c77565b506000604082860101526040601f19601f8301168501019250505092915050565b634e487b7160e01b600052601160045260246000fd5b81810381811115611f0d57611f0d612cb4565b634e487b7160e01b600052604160045260246000fd5b634e487b7160e01b600052603260045260246000fd5b634e487b7160e01b600052603160045260246000fd5b838152606060208201526000612d386060830185612ac2565b9050826040830152949350505050565b80820180821115611f0d57611f0d612cb4565b604051610100810167ffffffffffffffff81118282101715612d7f57612d7f612cdd565b60405290565b80516bffffffffffffffffffffffff81168114612da157600080fd5b919050565b8051612da1816129f5565b805163ffffffff81168114612da157600080fd5b805160068110612da157600080fd5b600082601f830112612de557600080fd5b8151602067ffffffffffffffff80831115612e0257612e02612cdd565b8260051b604051601f19603f83011681018181108482111715612e2757612e27612cdd565b6040529384526020818701810194908101925087851115612e4757600080fd5b6020870191505b84821015612e6e57612e5f82612db1565b83529183019190830190612e4e565b979650505050505050565b600060208284031215612e8b57600080fd5b815167ffffffffffffffff80821115612ea357600080fd5b908301906101008286031215612eb857600080fd5b612ec0612d5b565b612ec983612d85565b8152612ed760208401612da6565b602082015260408301516040820152612ef260608401612db1565b6060820152612f0360808401612db1565b6080820152612f1460a08401612db1565b60a0820152612f2560c08401612dc5565b60c082015260e083015182811115612f3c57600080fd5b612f4887828601612dd4565b60e08301525095945050505050565b8281526040602082015260006128986040830184612ac2565b8082028115828204841417611f0d57611f0d612cb4565b600082612fa457634e487b7160e01b600052601260045260246000fd5b500490565b600060018201612fbb57612fbb612cb4565b5060010190565b838152606060208201526000612fdb6060830185612ac2565b8281036040840152612fed8185612ac2565b9695505050505050565b6000806040838503121561300a57600080fd5b8251613015816129f5565b915061302360208401612d85565b90509250929050565b60006020828403121561303e57600080fd5b5051919050565b60008161305457613054612cb4565b506000190190565b60008151808452602080850194506020840160005b83811015612af35781516001600160a01b031687529582019590820190600101613071565b6080815260006130a96080830187612ac2565b82810360208401526130bb818761305c565b905082810360408401526130cf818661305c565b90508281036060840152612e6e8185612ac256fea26469706673582212201cbb3243bdf2246a74a754c4b24385dc52b256b192f67778a3b3a76648374a5864736f6c63430008170033",
  "linkReferences": {},
  "deployedLinkReferences": {}
}